:0400000007EF00F016
:0A0008003782F5ED07F021EF08F054
:1008000000001450800B216E14501424286E13AE77
:100810000CEF04F00EEF04F00FEF04F028802850E6
:10082000D8B415EF04F017EF04F02CEF04F02828EB
:10083000D8A41DEF04F01FEF04F027EF04F0000E22
:10084000116E000E126E000E136E000E146E138EDB
:10085000000E146E34EF04F0000E116E000E126ED6
:10086000000E136E000E146E1850800B211A1850D3
:100870001824296E17AE3FEF04F041EF04F042EF69
:1008800004F029802950D8B448EF04F04AEF04F06E
:100890005FEF04F02928D8A450EF04F052EF04F0E1
:1008A0005AEF04F0000E156E000E166E000E176E55
:1008B000000E186E178E000E186E67EF04F0000E13
:1008C000156E000E166E000E176E000E186E155087
:1008D000161017101810D8A470EF04F072EF04F07F
:1008E0008AEF04F0000E116E000E126E000E136EF1
:1008F000000E146E800E13127F0E1412215014126B
:1009000011C011F012C012F013C013F014C014F093
:10091000CDEF05F02850D8A490EF04F092EF04F04A
:100920009CEF04F0000E116E000E126E000E136E9E
:10093000000E146ECDEF05F0295028C019F01A6A88
:10094000195E000E1A5A7F0E1924226E000E1A200C
:10095000236E11C01DF012C01EF013C01FF014C092
:1009600020F0000E116E000E126E000E136E000EBF
:10097000146E000E246E000E256E000E266E000E04
:10098000276E000E296EFDEF04F02950D8B4CBEF8E
:1009900004F0CDEF04F0E4EF04F0D8901D361E36DD
:1009A0001F362036D890113612361336143627AE3D
:1009B000DCEF04F0DEEF04F0DFEF04F01180D890FC
:1009C000243625362636273615501D5C16501E58FF
:1009D00017501F5818502058D8A0F1EF04F0F3EF2B
:1009E00004F0FCEF04F0278C15501D5E16501E5AC3
:1009F00017501F5A1850205A292A190E296403EF3C
:100A000005F005EF05F0C5EF04F01D501E101F1096
:100A10002010D8B40EEF05F010EF05F028EF05F028
:100A2000248028EF05F0D89011361236133614368C
:100A300027AE1DEF05F01FEF05F020EF05F0118048
:100A4000D89024362536263627362206D8A0230607
:100A500013AE2DEF05F02FEF05F013EF05F0000EAC
:100A6000296E27AE36EF05F038EF05F05CEF05F0A4
:100A7000FF0E2414196EFF0E25141A6EFF0E261495
:100A80001B6E7F0E27141C6E19501A101B101C10A1
:100A9000D8B44DEF05F04FEF05F053EF05F0010E20
:100AA000296E5CEF05F011A058EF05F05AEF05F044
:100AB0005CEF05F04FEF05F02950D8B462EF05F078
:100AC00064EF05F088EF05F0010E1126000E1222EA
:100AD0001322142214A06FEF05F071EF05F088EFD8
:100AE00005F011C019F012C01AF013C01BF014C0A9
:100AF0001CF01C341C321B321A32193219C011F08E
:100B00001AC012F01BC013F01CC014F0224A232A92
:100B100023BE93EF05F0235008E12228D8A093EFDD
:100B200005F095EF05F0A0EF05F0000E236E2268AA
:100B3000000E116E000E126E000E136E000E146E7B
:100B400023BEADEF05F0235006E12204D8B0ABEF91
:100B500005F0ADEF05F0BBEF05F0000E236E000EC3
:100B6000226E000E116E000E126E000E136E000E3D
:100B7000146E000E216E22C028F028A0C2EF05F0EE
:100B8000C4EF05F0C7EF05F0138EC8EF05F0139E14
:100B9000D8902830146E7EEF04F012000B6E0B50CC
:100BA000D8B4D5EF05F0D7EF05F0F9EF05F006BEA4
:100BB000DEEF05F0DCEF05F0F9EF05F003C007F01C
:100BC00004C008F005C009F006C00AF0071E081EA0
:100BD000091E0A1E072A000E082209220A2207C03F
:100BE0000DF008C00EF009C00FF00AC010F001EFC0
:100BF00006F003C00DF004C00EF005C00FF006C0F3
:100C000010F00350041005100610D8A40AEF06F0E7
:100C10000CEF06F016EF06F0000E036E000E046EE9
:100C2000000E056E000E066EA7EF06F0960E0C6E17
:100C300020EF06F00C2AD89010320F320E320D320F
:100C4000000E0D14076E000E0E14086E000E0F1429
:100C5000096EFE0E10140A6E0750081009100A10D3
:100C6000D8A435EF06F037EF06F01AEF06F045EF9F
:100C700006F00C2A010E0D26000E0E220F22102265
:100C8000D89010320F320E320D32000E0D14076E56
:100C9000000E0E14086E000E0F14096EFF0E1014D5
:100CA0000A6E0750081009100A10D8A45AEF06F06F
:100CB0005CEF06F039EF06F064EF06F00C06D89012
:100CC0000D360E360F3610360FBE69EF06F06BEF9D
:100CD00006F073EF06F0020E0C6071EF06F073EF92
:100CE00006F05EEF06F00CB078EF06F07AEF06F053
:100CF0007BEF06F00F9ED8900C320CC007F0086A0C
:100D0000096A0A6A07C00AF0096A086A076A07508E
:100D10000D1208500E1209500F120A5010120B50EB
:100D2000D8B495EF06F097EF06F09FEF06F006BEF9
:100D30009EEF06F09CEF06F09FEF06F0108E0DC0C0
:100D400003F00EC004F00FC005F010C006F0120052
:100D5000C8EC07F0000E366E2BEC08F09C0E2A6EE5
:100D6000D70EE82EFED72A2EFCD700003604D8A4D2
:100D7000BCEF06F0BEEF06F038EF07F03450325CFF
:100D800035503358D8A0C7EF06F0C9EF06F0D1EFC1
:100D900006F03450325C2C6E355033582D6EDDEF3A
:100DA00006F03450325C2A6E355033582B6EFF0EED
:100DB0002A242C6EFF0E2B202D6E2CC003F02DC08C
:100DC00004F0056A066A000ECEEC05F003C011F0CF
:100DD00004C012F005C013F006C014F0000E156E2A
:100DE000000E166EE80E176E410E186E01EC04F040
:100DF00011C02EF012C02FF013C030F014C031F02B
:100E00002EC003F02FC004F030C005F031C006F052
:100E1000000E076E000E086E000E096E400E0A6E80
:100E200046EC07F0D8A017EF07F019EF07F035EF01
:100E300007F0000E036E000E046E700E056E410E7C
:100E4000066E2EC007F02FC008F030C009F031C088
:100E50000AF046EC07F0D8A030EF07F032EF07F0C9
:100E600035EF07F08D84AAEF06F08D94AAEF06F017
:100E70008D841A0E2A6EF80EE82EFED72A2EFCD785
:100E800000D08D94AAEF06F007EF00F0000E0314D7
:100E90000B6E000E04140C6E800E05140D6E7F0E8A
:100EA00006140E6E0B500C100D100E10D8A45BEF34
:100EB00007F05DEF07F065EF07F0000E036E000E20
:100EC000046E000E056E000E066E000E07140B6E0B
:100ED000000E08140C6E800E09140D6E7F0E0A149D
:100EE0000E6E0B500C100D100E10D8A47AEF07F0F8
:100EF0007CEF07F084EF07F0000E076E000E086E1F
:100F0000000E096E000E0A6E06AE89EF07F08BEF39
:100F100007F094EF07F0036C041ED8B0042A051EF6
:100F2000D8B0052A800E06560AAE99EF07F09BEF5F
:100F300007F0A4EF07F0076C081ED8B0082A091EB6
:100F4000D8B0092A800E0A56000E031A000E041AA1
:100F5000000E051A800E061A000E071A000E081A57
:100F6000000E091A800E0A1A0750035C0850045834
:100F7000095005580A500658D8B0C1EF07F0C3EF22
:100F800007F0C6EF07F0D890C7EF07F0D88012003F
:100F9000700ED312FC0ED316D3A4D1EF07F0D3EF0B
:100FA00007F0CCEF07F00F0EC16E070EB46E9694EB
:100FB0008D949692969092909282949094848B9035
:100FC000A10ED56EF294959A939293908C8A8A9200
:100FD0008A90830ED56EF294A10ECD6E050EBD6E75
:100FE0009E949D84F28CF28E120006009EA4FBEF6C
:100FF00007F0FDEF07F01FEF08F09E94BDA003EF90
:1010000008F005EF08F012EF08F0BF50016EBE5077
:10101000346E01C035F09D94040EBD6E9E949D8487
:101020001FEF08F0BF50016EBE50326E01C033F0AA
:10103000010E366E9D94050EBD6E9E949D84379272
:101040001100366A356A346A336A326A37903792E9
:101050000001A8EF06F08B80060EE82EFED700D028
:041060008B9012005F
:020000040030CA
:0800000000081E1EFF8181FFB4
:00000001FF
